S01D0000437045333031202D204D69647465726D20322D52582E7372656313
S113000071C00000B5C000008CC000008AC00000B0
S113001088C0000086C0000084C0000082C00000C8
S113002080C000007EC000007CC000007AC00000D8
S113003078C0000076C0000074C0000072C00000E8
S113004070C000006EC000006CC000006AC00000F8
S113005068C0000066C0000064C0000062C0000008
S113006060C000005EC000005CC000005AC0000018
S113007058C0000056C0000054C0000052C0000028
S113008050C000004EC000004CC000004AC0000038
S113009048C0000046C0000044C0000042C0000048
S11300A040C000003EC000003CC000003AC0000058
S11300B038C0000036C0000034C0000032C0000068
S11300C030C000002EC000002CC000002AC0000078
S11300D028C0000026C0000024C0000022C0000088
S11300E020C0000011241FBECFEFD1E2DEBFCDBF80
S11300F000E00CBF12E0A0E0B2E0ECEFFEE000E0B4
S11301000BBF02C007900D92A833B107D9F722E0C4
S1130110A8E3B2E001C01D92AD33B207E1F7A3D06A
S1130120EBC66ECFCF93DF93EAD0EC018BE091E086
S11301309983888321E02A8385E290E09C838B83E2
S11301401D829F838E8328879A87898722E02B8745
S11301509D878C8783E08E87E9E6F0E0808182606A
S11301608083E89ACE01AED1CE01DF91CF9108957C
S11301701F920F920FB60F9211248F9381E08093F8
S113018038028F910F900FBE0F901F901895109208
S1130190C50087E68093C400E1ECF0E080818860CC
S11301A08083E2ECF0E08081866080830895E0EC57
S11301B0F0E0908195FFFDCF8093C60080E090E051
S11301C00895EF92FF920F931F93CF93FC01019038
S11301D00020E9F731978F01081B190B101611063F
S11301E06CF47C01C0E0F701EC0FF11D8081DFDFCE
S11301F0CF5F2C2F30E020173107ACF3CF911F9144
S11302000F91FF90EF9008950F931F93CF93DF9377
S1130210CDB7DEB7C054D1090FB6F894DEBF0FBE18
S1130220CDBF9F938F93809107028F938091060295
S11302308F938E010F5F1F4F1F930F9382D3C801BB
S1130240C0DF0F900F900F900F900F900F90C05C35
S1130250DF4F0FB6F894DEBF0FBECDBFDF91CF9155
S11302601F910F910895CF93DF93CDB7DEB7AD976C
S11302700FB6F894DEBF0FBECDBF85E0E8E0F2E034
S1130280DE01119601900D928A95E1F780DF4ADF35
S11302908C017894AE014F5F5F4F60E070E081D0D5
S11302A021E030E0AE014A5F5F4F60E0C8016ED0EC
S11302B0809138028823E1F31092380208C0BE010D
S11302C0655F7F4FC801F0D1CE010D969DDFC80157
S11302D0CAD08111F4CFAE014F5F5F4F60E070E090
S11302E0C8015FD0E5CFFC01A62FB72F9C012B5F7F
S11302F03F4F91919D93E217F307D9F7089580E159
S113030090E0FED120E1FC0111922A95E9F70895CD
S1130310CF93DF93EC01DA01E881F981508181E028
S113032090E00A8002C0880F991F0A94E2F7809532
S1130330852380836EBD0DB407FEFDCF8EB58F87F8
S11303402115310579F0FD012A0F3B1FDF01908152
S11303509EBD0DB407FEFDCF9EB59C933196E2176A
S1130360F307A1F7E881F981208181E090E00A8018
S113037002C0880F991F0A94E2F7822B80838F852D
S1130380DF91CF9108956062C3CF0895C1CF0895DE
S113039020E030E040E050E06FEFBACF0895F8CFAE
S11303A00895DF92EF92FF920F931F93CF93DF9301
S11303B000D000D0CDB7DEB77C01D62ECA01BE0175
S11303C06F5F7F4F90DF6AE06D0D25E030E0AE0196
S11303D04F5F5F4FC701D7DF21E030E0AE014A5FD6
S11303E05F4F62E0C701D2DF01E010E0C80102C044
S11303F0880F991FDA94E2F79E81892B8E8321E07E
S113040030E0AE014A5F5F4F62E0C701BCDFD70155
S11304101396ED91FC911497808115960C9002C06F
S1130420000F111F0A94E2F7082B008326960FB6DB
S1130430F894DEBF0FBECDBFDF91CF911F910F9116
S1130440FF90EF90DF900895FC0127852E7030E037
S113045035952795263031051CF4822F932F089566
S11304608FEF9FEF0895CF93DF93EC01EB81FC8135
S1130470208181E090E00D8002C0880F991F0A94CA
S1130480E2F7809582238083CE0189DFCE01DCDF11
S1130490892F8095881F8827881FDF91CF91089521
S11304A0CF93DF931F92CDB7DEB720E7298321E0F6
S11304B030E0AE014F5F5F4F67E065DF0F90DF9183
S11304C0CF910895FF920F931F93CF93DF931F92C1
S11304D0CDB7DEB78C01DC01ED91FC91119742910F
S11304E081E090E09C0112960C90129702C0220FBA
S11304F0331F0A94E2F7242B20831396ED91FC9189
S1130500149742919C0115960C90159702C0220FE6
S1130510331F0A94E2F7242B2083ED91FC91119769
S113052040819C0112960C90129702C0220F331F37
S11305300A94E2F7242B20831396ED91FC911497EF
S11305403081AC0115960C90159702C0440F551FCD
S11305500A94E2F7242F2095232320832CB52061CD
S11305602CBD2CB520642CBD1696ED91FC911797EB
S113057042919C0118960C90189702C0220F331FC9
S11305800A94E2F7242B20831996ED91FC911A9793
S113059042919C011B960C901B9702C0220F331FA3
S11305A00A94E2F7242B20831C96ED91FC911D976D
S11305B022911E960C9002C0880F991F0A94E2F7AC
S11305C08095822380838CB5877F8CBD8CB58B7F8F
S11305D08CBD8CB58E7F8CBD8CB58D7F8CBD8DB55F
S11305E081608DBD8CB58F7D8CBD20E030E040E016
S11305F050E062EEC8018CDE20E030E040E050E0E4
S113060061EEC80185DEC8014BDF8FE0898321E0FC
S113061030E0AE014F5F5F4F60E0C801B4DE0F2EE3
S1130620FFE3FF2EF02DF98221E030E0AE014F5FB1
S11306305F4F61E0C801A7DEF98221E030E0AE013E
S11306404F5F5F4F6CE1C8019EDE84E0898321E047
S113065030E0AE014F5F5F4F6DE1C80194DE198257
S113066021E030E0AE014F5F5F4F62E0C8018BDEF6
S11306700F90DF91CF911F910F91FF900895CF9329
S1130680DF931F92CDB7DEB7FC0197859064998301
S113069021E030E0AE014F5F5F4F67E0CF0173DED2
S11306A00F90DF91CF9108950F931F93CF93DF9312
S11306B08C01EB01C9DE99838883C801E0DF88815E
S11306C0998199231CF41AA280E015C021E030E03E
S11306D0AE014E5D5F4F60E6C80158DE2AA12223B9
S11306E049F030E0AE014E5F5F4F61E6C80110DEB5
S11306F081E001C081E0DF91CF911F910F910895B6
S11307000F931F93CF93DF938230910510F482E00F
S113071090E0E0913B02F0913C0220E030E0A0E068
S1130720B0E0309719F1408151810281138148175B
S11307305907C8F08417950769F4109731F0129699
S11307400C93129713961C9327C000933B021093AB
S11307503C0222C02115310519F04217530718F441
S11307609A01BD01EF01DF01F801DBCF211531054D
S1130770F9F0281B390B2430310580F48A819B81E0
S11307806115710521F0FB019383828304C090936A
S11307903C0280933B02FE01329644C0FE01E20F0C
S11307A0F31F8193919322503109398328833AC0EE
S11307B02091390230913A02232B41F42091020214
S11307C03091030230933A022093390220910002BF
S11307D0309101022115310541F42DB73EB7409106
S11307E0040250910502241B350BE0913902F0916B
S11307F03A02E217F307A0F42E1B3F0B2817390720
S113080078F0AC014E5F5F4F2417350748F04E0F68
S11308105F1F50933A02409339028193919302C02F
S1130820E0E0F0E0CF01DF91CF911F910F910895A7
S1130830CF93DF93009709F481C0FC0132971382B0
S11308401282A0913B02B0913C02109781F4208166
S11308503181820F931F2091390230913A02281777
S1130860390751F5F0933A02E093390267C0ED017C
S113087020E030E0CE17DF0740F44A815B819E011F
S113088041155105F1F0EA01F5CFD383C2834081CC
S11308905181840F951FC817D90759F4888199810C
S11308A0840F951F0296918380838A819B81938311
S11308B082832115310529F4F0933C02E0933B0235
S11308C03DC0E901FB83EA8349915991C40FD51FC7
S11308D0EC17FD0761F480819181840F951F0296C6
S11308E0E90199838883828193819B838A83E0E0F1
S11308F0F0E012968D919C911397009719F0FD01E9
S1130900DC01F7CF8D919C9111979D012E5F3F4F94
S1130910820F931F2091390230913A022817390728
S113092069F4309729F410923C0210923B0202C001
S113093013821282B0933A02A0933902DF91CF91CD
S113094008950F931F93CF93DF93CDB7DEB72E9700
S11309500FB6F894DEBF0FBECDBF0E891F8986E0A7
S11309608C831A8309838FEF9FE79E838D83AE0167
S1130970465E5F4F688D798DCE01019610D0EF8170
S1130980F885E00FF11F10822E960FB6F894DEBFA3
S11309900FBECDBFDF91CF911F910F9108952F927C
S11309A03F924F925F926F927F928F929F92AF92FB
S11309B0BF92CF92DF92EF92FF920F931F93CF9348
S11309C0DF93CDB7DEB72B970FB6F894DEBF0FBE1B
S11309D0CDBF6C017B018A01FC01178216828381E1
S11309E081FFBFC1CE0101963C01F6019381F7015D
S11309F093FD859193FF81917F01882309F4ADC113
S1130A00853239F493FD859193FF81917F0185327D
S1130A1021F4B60190E0D6D1E8CF912C212C312CD1
S1130A20FFE1F315D8F08B3279F038F4803279F0A5
S1130A308332A1F4232D20611DC08D3261F08033F7
S1130A4069F4232D216016C0832D8260382EE32D96
S1130A50E4603E2E2AC0F32DF8601DC037FC2DC083
S1130A6020ED280F2A3040F08E32B9F436FC75C1DF
S1130A70232D2064322E19C036FE06C08AE0989ECB
S1130A80200D1124922E11C0EAE02E9E200D112477
S1130A90222EF32DF0623F2E08C08C3621F4832DD4
S1130AA08068382E02C0883641F4F70193FD8591A1
S1130AB093FF81917F018111B3CF982F9F7D95542E
S1130AC0933028F40C5F1F4F9FE399830DC0833646
S1130AD031F0833771F0833509F055C020C0F80137
S1130AE0808189830E5F1F4F88248394912C530146
S1130AF012C02801F2E04F0E511CF801A080B18011
S1130B0036FE03C0692D70E002C06FEF7FEFC501B0
S1130B104ED14C018201F32DFF773F2E15C02801E1
S1130B2022E0420E511CF801A080B18036FE03C0C1
S1130B30692D70E002C06FEF7FEFC5012DD14C012C
S1130B40F32DF0683F2E820133FC19C0822D90E012
S1130B5088169906A0F4B60180E290E033D12A9475
S1130B60F5CFF50137FC859137FE81915F01B60120
S1130B7090E028D121102A9421E0821A910881144E
S1130B80910479F7E1C0843611F0893639F5F8011A
S1130B9037FE07C060817181828193810C5F1F4F92
S1130BA008C060817181072E000C880B990B0E5FC1
S1130BB01F4FF32DFF763F2E97FF09C09095809528
S1130BC0709561957F4F8F4F9F4FF0683F2E2AE0BD
S1130BD030E0A30133D1882E861844C0853731F420
S1130BE0232D2F7EB22E2AE030E025C0932D997F4D
S1130BF0B92E8F36C1F018F4883579F0AEC080373D
S1130C0019F0883721F0A9C0E92FE061BE2EB4FEA7
S1130C100DC0FB2DF460BF2E09C034FE0AC0292F7D
S1130C202660B22E06C028E030E005C020E130E0A6
S1130C3002C020E132E0F801B7FE07C06081718193
S1130C40828193810C5F1F4F06C06081718180E0B7
S1130C5090E00E5F1F4FA301F1D0882E8618FB2D64
S1130C60FF773F2E36FE0DC0232D2E7FA22E891432
S1130C7058F434FE0BC032FC09C0832D8E7EA82E9E
S1130C8005C0B82CA32C03C0B82C01C0B92CA4FEF9
S1130C900FC0FE01E80DF11D8081803321F49A2DEF
S1130CA0997EA92E09C0A2FE06C0B394B39404C0D1
S1130CB08A2D867809F0B394A3FC10C0A0FE06C068
S1130CC0B21480F4280C922C9B180DC0B21458F462
S1130CD0B60180E290E076D0B394F8CFB21418F461
S1130CE02B1802C0982C212CA4FE0FC0B60180E35F
S1130CF090E068D0A2FE16C0A1FC03C088E790E093
S1130D0002C088E590E0B6010CC08A2D867851F0C7
S1130D10A1FE02C08BE201C080E2A7FC8DE2B60115
S1130D2090E050D0891430F4B60180E390E04AD0CA
S1130D309A94F8CF8A94F301E80DF11D8081B601ED
S1130D4090E040D08110F6CF222009F44ECEB601B7
S1130D5080E290E037D02A94F7CFF601868197811C
S1130D6002C08FEF9FEF2B960FB6F894DEBF0FBE35
S1130D70CDBFDF91CF911F910F91FF90EF90DF9046
S1130D80CF90BF90AF909F908F907F906F905F9027
S1130D904F903F902F900895FC0105906150704052
S1130DA00110D8F7809590958E0F9F1F0895FC0130
S1130DB06150704001900110D8F7809590958E0F86
S1130DC09F1F08950F931F93CF93DF93FB012381FC
S1130DD021FD03C08FEF9FEF2CC022FF16C0468178
S1130DE05781248135814217530744F4A081B1818E
S1130DF09D012F5F3F4F318320838C932681378160
S1130E002F5F3F4F3783268314C08B01EC01FB0116
S1130E100084F185E02D1995892BE1F6D801169609
S1130E208D919C911797019617969C938E93169784
S1130E30CE01DF91CF911F910F910895FA01AA2756
S1130E40283051F1203181F1E8946F936E7F6E5F09
S1130E507F4F8F4F9F4FAF4FB1E03ED0B4E03CD0B7
S1130E60670F781F891F9A1FA11D680F791F8A1F9A
S1130E70911DA11D6A0F711D811D911DA11D20D001
S1130E8009F468943F912AE0269F11243019305DBB
S1130E903193DEF6CF010895462F4770405D4193AC
S1130EA0B3E00FD0C9F7F6CF462F4F70405D4A33F9
S1130EB018F0495D31FD4052419302D0A9F7EACFC1
S1130EC0B4E0A6959795879577956795BA95C9F7F0
S1130ED000976105710508959B01AC010A2E0694E3
S1130EE05795479537952795BA95C9F7620F731F9C
S10F0EF0841F951FA01D0895F894FFCFE7
S1130EFC00003D0220000D02010101010152583A8B
S1130F0C2054656D70657261747572652069732007
S1130F1C2573206465677265657320466168726524
S10B0F2C6E686569740A000097
S9030000FC
