S01D0000437045333031202D204D69647465726D20322D54582E7372656311
S11300000C9434000C947B000C9451000C9451001B
S11300100C9451000C9451000C9451000C94510018
S11300200C9451000C9451000C9451000C94A100B8
S11300300C9451000C9451000C9451000C945100F8
S11300400C9451000C9451000C9451000C945100E8
S11300500C9451000C9451000C9451000C945100D8
S11300600C9451000C94510011241FBECFEFD8E022
S1130070DEBFCDBF11E0A0E0B1E0E8E8F3E102C0EB
S113008005900D92A633B107D9F721E0A6E3B1E0BC
S113009001C01D92AC33B207E1F70E94FF000C943B
S11300A0C2090C940000CF93DF930E94B201EC01CB
S11300B085E290E09983888322E02A839C838B8362
S11300C021E02D839F838E8325E028879A87898763
S11300D023E02B879D878C8784E08E87E9E6F0E018
S11300E0808182608083E89ACE010E942402CE013E
S11300F0DF91CF9108951F920F920FB60F921124A2
S11301008F9381E0809337018F910F900FBE0F90F2
S11301101F90189510928000E1E8F0E080818C60D7
S11301208083109285001092840083E294EF909370
S1130130890080938800EFE6F0E08081826080830C
S113014008951F920F920FB60F9211248F9381E09E
S1130150809336018F910F900FBE0F901F901895CA
S11301601092C50087E68093C400E1ECF0E0808142
S113017088608083E2ECF0E080818660808308956B
S1130180E0ECF0E0908195FFFDCF8093C60080E025
S113019090E00895EF92FF920F931F93CF93FC0189
S11301A001900020E9F731978F01081B190B1016F5
S11301B0110674F47C01C0E0F701EC0FF11D80819D
S11301C00E94C000CF5F2C2F30E020173107A4F32A
S11301D0CF911F910F91FF90EF900895ECE7F0E01D
S11301E01082808180648083EAE7F0E08081876008
S11301F0808310927B008081806880830895CF93F0
S1130200DF93CDB7DEB7C856D1090FB6F894DEBF79
S11302100FBECDBF85E0E8E0F1E0DE01119601906C
S11302200D928A95E1F70E9453007C010E948A0096
S11302300E94EE000E94B00078940AE710E00F2EAE
S1130240F8E76F2E712CF02D0F2EF9E74F2E512C5D
S1130250F02D5E0186E0A80EB11C0F2EF6E4CF2E21
S1130260D12CF02DCC0EDD1EE2E0CE0ED11C8091FF
S11302703701882351F010923701C7010E948C0383
S1130280892B19F0C7010E94090280913601882345
S113029071F310923601F801808180648083F80143
S11302A0808186FDFCCFF3018081F201608170E0E2
S11302B0762F6627680F711D072E000C880B990B8B
S11302C00E94890420E030E040EA50E40E941505D1
S11302D020E030E040E85AE30E9415052AE037EDBB
S11302E043E25CE30E94DF030E945104862E062E43
S11302F0000C99089F926F93809107018F938091CE
S113030006018F93BF92AF920E94C806C5010E9456
S1130310CA004AE0B601C4010E94A306F601019096
S11303200020E9F7EC19A996EFAFA997AE014A5B53
S11303305F4FBE016F5F7F4FC7010E941C030F9088
S11303400F900F900F900F900F9091CFFC01A62F5C
S1130350B72F9C012B5F3F4F91919D93E217F307B9
S1130360D9F7089580E190E00E94820520E1FC0124
S113037011922A95E9F70895CF93DF93EC01DA01FE
S1130380E881F981508181E090E00A8002C0880F01
S1130390991F0A94E2F78095852380836EBD0DB47E
S11303A007FEFDCF8EB58F872115310579F0FD014C
S11303B02A0F3B1FDF0190819EBD0DB407FEFDCFC8
S11303C09EB59C933196E217F307A1F7E881F98172
S11303D0208181E090E00A8002C0880F991F0A946E
S11303E0E2F7822B80838F85DF91CF91089560623D
S11303F00E94BC0108950E94BC01089520E030E0F1
S113040040E050E06FEF0E94BC0108950E94FE019D
S1130410089520E030E040E050E061EE0E94BC012D
S11304200895CF93DF931F92CDB7DEB720E72983DA
S113043021E030E0AE014F5F5F4F67E00E94F701BB
S11304400F90DF91CF910895FF920F931F93CF9355
S1130450DF931F92CDB7DEB78C01DC01ED91FC91E7
S11304601197429181E090E09C0112960C901297B2
S113047002C0220F331F0A94E2F7242B2083139621
S1130480ED91FC91149742919C0115960C9015974F
S113049002C0220F331F0A94E2F7242B2083ED912C
S11304A0FC91119740819C0112960C90129702C006
S11304B0220F331F0A94E2F7242B20831396ED9125
S11304C0FC9114973081AC0115960C90159702C0DD
S11304D0440F551F0A94E2F7242F209523232083E9
S11304E02CB520612CBD2CB520642CBD1696ED9145
S11304F0FC91179742919C0118960C90189702C092
S1130500220F331F0A94E2F7242B20831996ED91CE
S1130510FC911A9742919C011B960C901B9702C068
S1130520220F331F0A94E2F7242B20831C96ED91AB
S1130530FC911D9722911E960C9002C0880F991F62
S11305400A94E2F78095822380838CB5877F8CBDE3
S11305508CB58B7F8CBD8CB58E7F8CBD8CB58D7F1F
S11305608CBD8DB581608DBD8CB58F7D8CBD20E03B
S113057030E040E050E062EEC8010E94BC0120E09F
S113058030E040E050E061EEC8010E94BC01C801C7
S11305900E9411028FE0898321E030E0AE014F5FB9
S11305A05F4F60E0C8010E94F7010F2EFFE3FF2EAA
S11305B0F02DF98221E030E0AE014F5F5F4F61E042
S11305C0C8010E94F701F98221E030E0AE014F5FDB
S11305D05F4F6CE1C8010E94F70184E0898321E048
S11305E030E0AE014F5F5F4F6DE1C8010E94F7013B
S11305F0198221E030E0AE014F5F5F4F62E0C80135
S11306000E94F7010F90DF91CF911F910F91FF90FE
S11306100895CF93DF931F92CDB7DEB720E32983EC
S113062021E030E0AE014F5F5F4F67E00E94F701C9
S11306300F90DF91CF910895CF92DF92EF92FF92C6
S11306400F931F93CF93DF9300D000D000D0CDB78A
S1130650DEB78C016B017A010E940903BE016F5F52
S11306607F4FC6010E94A60125E030E0AE014F5F36
S11306705F4F60E1C8010E94F701BE016F5F7F4FC9
S1130680C6010E94A60125E030E0AE014F5F5F4F36
S11306906AE0C8010E94F701D70192962C9130E0DC
S11306A0A7014E5F5F4F60EAC8010E94BC0121E0D0
S11306B030E0AE014A5F5F4F60E0C8010E94FB0179
S11306C08E818E7F8E8321E030E0AE014A5F5F4FE2
S11306D060E0C8010E94F701D8011396ED91FC91E6
S11306E01497208181E090E015960C9002C0880F49
S11306F0991F0A94E2F7822B808326960FB6F8940A
S1130700DEBF0FBECDBFDF91CF911F910F91FF9040
S1130710EF90DF90CF900895EF92FF920F931F9385
S1130720CF93DF931F92CDB7DEB78C01DC01139614
S1130730ED91FC911497208181E090E015960C9046
S113074002C0880F991F0A94E2F780958223808360
S1130750C8010E940602F801878585FD09C084FD51
S11307600AC00F2EFEEFEF2EFF24FA94F02D06C0E0
S1130770E12CF12C03C0EE24EA94FE2CC8010E9463
S1130780090321E030E0AE014F5F5F4F60E0C80134
S11307900E94FB0189818160898321E030E0AE0100
S11307A04F5F5F4F60E0C8010E94F701C7010F90DF
S11307B0DF91CF911F910F91FF90EF9008950E94C8
S11307C0F3030C94DB040E94D40458F00E94CD047B
S11307D040F029F45F3F29F00C94C40451110C94A7
S11307E00F050C94CA040E94EC0468F39923B1F336
S11307F0552391F3951B550BBB27AA276217730743
S1130800840738F09F5F5F4F220F331F441FAA1FD6
S1130810A9F335D00E2E3AF0E0E832D09150504092
S1130820E695001CCAF72BD0FE2F29D0660F771F40
S1130830881FBB1F261737074807AB07B0E809F026
S1130840BB0B802DBF01FF2793585F4F3AF09E3FAB
S1130850510578F00C94C4040C940F055F3FE4F345
S1130860983ED4F3869577956795B795F7959F5FEE
S1130870C9F7880F911D9695879597F90895E1E03A
S1130880660F771F881FBB1F621773078407BA0799
S113089020F0621B730B840BBA0BEE1F88F7E095F4
S11308A008950E9458046894B1110C940F0508959A
S11308B00E94F40488F09F5798F0B92F9927B751F4
S11308C0B0F0E1F0660F771F881F991F1AF0BA95F0
S11308D0C9F714C0B13091F00E940E05B1E008953B
S11308E00C940E05672F782F8827B85F39F0B93F2D
S11308F0CCF3869577956795B395D9F73EF49095A3
S11309008095709561957F4F8F4F9F4F0895E89420
S113091009C097FB3EF490958095709561957F4F43
S11309208F4F9F4F9923A9F0F92F96E9BB279395F1
S1130930F695879577956795B795F111F8CFFAF401
S1130940BB0F11F460FF1BC06F5F7F4F8F4F9F4F32
S113095016C0882311F096E911C0772321F09EE890
S1130960872F762F05C0662371F096E8862F70E0F6
S113097060E02AF09A95660F771F881FDAF7880FD0
S11309809695879597F9089597F99F6780E870E0A1
S113099060E008959FEF80EC089500240A941616F1
S11309A0170618060906089500240A941216130659
S11309B0140605060895092E0394000C11F48823E7
S11309C052F0BB0F40F4BF2B11F460FF04C06F5F03
S11309D07F4F8F4F9F4F089557FD9058440F551FD9
S11309E059F05F3F71F04795880F97FB991F61F0AD
S11309F09F3F79F087950895121613061406551F24
S1130A00F2CF4695F1DF08C0161617061806991F8F
S1130A10F1CF86957105610508940895E894BB2784
S1130A2066277727CB0197F908950E9428050C942F
S1130A30DB040E94CD0438F00E94D40420F09523F6
S1130A4011F00C94C4040C94CA0411240C940F05E2
S1130A500E94EC0470F3959FC1F3950F50E0551F6D
S1130A60629FF001729FBB27F00DB11D639FAA27FF
S1130A70F00DB11DAA1F649F6627B00DA11D661F4E
S1130A80829F2227B00DA11D621F739FB00DA11D6F
S1130A90621F839FA00D611D221F749F3327A00D29
S1130AA0611D231F849F600D211D822F762F6A2FC5
S1130AB011249F5750409AF0F1F088234AF0EE0F2A
S1130AC0FF1FBB1F661F771F881F91505040A9F757
S1130AD09E3F510580F00C94C4040C940F055F3FB5
S1130AE0E4F3983ED4F3869577956795B795F79593
S1130AF0E7959F5FC1F7FE2B880F911D969587950B
S1130B0097F908950F931F93CF93DF938230910544
S1130B1010F482E090E0E0913A01F0913B0120E092
S1130B2030E0A0E0B0E0309719F1408151810281BA
S1130B30138148175907C8F08417950769F410976B
S1130B4031F012960C93129713961C9327C00093BE
S1130B503A0110933B0122C02115310519F04217C7
S1130B60530718F49A01BD01EF01DF01F801DBCF4F
S1130B7021153105F9F0281B390B2430310580F497
S1130B808A819B816115710521F0FB019383828326
S1130B9004C090933B0180933A01FE01329644C015
S1130BA0FE01E20FF31F819391932250310939839F
S1130BB028833AC02091380130913901232B41F424
S1130BC020910201309103013093390120933801BF
S1130BD020910001309101012115310541F42DB717
S1130BE03EB74091040150910501241B350BE0915F
S1130BF03801F0913901E217F307A0F42E1B3F0BE3
S1130C002817390778F0AC014E5F5F4F241735077A
S1130C1048F04E0F5F1F5093390140933801819380
S1130C20919302C0E0E0F0E0CF01DF91CF911F91FA
S1130C300F910895CF93DF93009709F481C0FC01CD
S1130C40329713821282A0913A01B0913B0110971E
S1130C5081F420813181820F931F209138013091DA
S1130C6039012817390751F5F0933901E093380118
S1130C7067C0ED0120E030E0CE17DF0740F44A8181
S1130C805B819E0141155105F1F0EA01F5CFD38353
S1130C90C28340815181840F951FC817D90759F425
S1130CA088819981840F951F0296918380838A811C
S1130CB09B81938382832115310529F4F0933B01B1
S1130CC0E0933A013DC0E901FB83EA8349915991DC
S1130CD0C40FD51FEC17FD0761F480819181840F47
S1130CE0951F0296E90199838883828193819B836E
S1130CF08A83E0E0F0E012968D919C91139700971F
S1130D0019F0FD01DC01F7CF8D919C9111979D01A4
S1130D102E5F3F4F820F931F20913801309139018C
S1130D202817390769F4309729F410923B0110927F
S1130D303A0102C013821282B0933901A0933801A0
S1130D40DF91CF910895BB274A3031F4992322F4DF
S1130D50BDE2909581959F4F0C94AF06BB27FB0194
S1130D605527AA27880F991FAA1FA41710F0A41BA0
S1130D7083955051B9F7A05DAA3308F0A95DA193FA
S1130D80009779F7B111B1931192CB010C94E1085A
S1130D90AEE0B0E0EEECF6E00C9499090D891E8902
S1130DA086E08C831A8309838FEF9FE79E838D836C
S1130DB0AE01475E5F4F6F89788DCE0101960E9428
S1130DC0EA06EF81F885E00FF11F10822E96E4E029
S1130DD00C94B509ABE0B0E0E0EFF6E00C948B09BD
S1130DE06C017B018A01FC0117821682838181FFD9
S1130DF0CCC1CE0101963C01F6019381F70193FD2C
S1130E00859193FF81917F01882309F4BAC18532CA
S1130E1039F493FD859193FF81917F01853229F403
S1130E20B60190E00E94F108E7CF912C212C312CDF
S1130E30FFE1F315D8F08B3279F038F4803279F091
S1130E408332A1F4232D20611DC08D3261F08033E3
S1130E5069F4232D216016C0832D8260382EE32D82
S1130E60E4603E2E2AC0F32DF8601DC037FC2DC06F
S1130E7020ED280F2A3040F08E32B9F436FC81C1BF
S1130E80232D2064322E19C036FE06C08AE0989EB7
S1130E90200D1124922E11C0EAE02E9E200D112463
S1130EA0222EF32DF0623F2E08C08C3621F4832DC0
S1130EB08068382E02C0883641F4F70193FD85918D
S1130EC093FF81917F018111B3CF982F9F7D95541A
S1130ED0933028F40C5F1F4F9FE399830DC0833632
S1130EE031F0833771F0833509F059C021C0F8011E
S1130EF0808189830E5F1F4F88248394912C530132
S1130F0013C02801F2E04F0E511CF801A080B180FB
S1130F1036FE03C0692D70E002C06FEF7FEFC5019C
S1130F200E94D6084C018201F32DFF773F2E16C094
S1130F30280122E0420E511CF801A080B18036FE47
S1130F4003C0692D70E002C06FEF7FEFC5010E94FE
S1130F50CB084C01F32DF0683F2E820133FC1BC0FB
S1130F60822D90E088169906B0F4B60180E290E0F4
S1130F700E94F1082A94F4CFF50137FC859137FEDD
S1130F8081915F01B60190E00E94F10821102A943A
S1130F9021E0821A91088114910471F7E8C0843623
S1130FA011F0893641F5F80137FE07C0608171817F
S1130FB0828193810C5F1F4F08C060817181072E6D
S1130FC0000C880B990B0E5F1F4FF32DFF763F2EFD
S1130FD097FF09C090958095709561957F4F8F4FCD
S1130FE09F4FF0683F2E2AE030E0A3010E942D09B4
S1130FF0882E861845C0853731F4232D2F7EB22ED6
S11310002AE030E025C0932D997FB92E8F36C1F0A8
S113101018F4883579F0B5C0803719F0883721F095
S1131020B0C0E92FE061BE2EB4FE0DC0FB2DF4600C
S1131030BF2E09C034FE0AC0292F2660B22E06C076
S113104028E030E005C020E130E002C020E132E0D9
S1131050F801B7FE07C060817181828193810C5FC2
S11310601F4F06C06081718180E090E00E5F1F4FCA
S1131070A3010E942D09882E8618FB2DFF773F2E91
S113108036FE0DC0232D2E7FA22E891458F434FE73
S11310900BC032FC09C0832D8E7EA82E05C0B82C4F
S11310A0A32C03C0B82C01C0B92CA4FE0FC0FE01B0
S11310B0E80DF11D8081803321F49A2D997EA92EAB
S11310C009C0A2FE06C0B394B39404C08A2D8678E6
S11310D009F0B394A3FC11C0A0FE06C0B21488F4B6
S11310E0280C922C9B180EC0B21460F4B60180E256
S11310F090E00E94F108B394F7CFB21418F42B18BF
S113110002C0982C212CA4FE10C0B60180E390E00C
S11311100E94F108A2FE17C0A1FC03C088E790E07A
S113112002C088E590E0B6010CC08A2D867859F09B
S1131130A1FE02C08BE201C080E2A7FC8DE2B601F1
S113114090E00E94F108891438F4B60180E390E03D
S11311500E94F1089A94F7CF8A94F301E80DF11DE7
S11311608081B60190E00E94F1088110F5CF222021
S113117009F442CEB60180E290E00E94F1082A947C
S1131180F6CFF6018681978102C08FEF9FEF2B96F1
S1131190E2E10C94A709FC01059061507040011034
S11311A0D8F7809590958E0F9F1F0895FC0161508C
S11311B0704001900110D8F7809590958E0F9F1F75
S11311C00895DC01FC01672F71917723E1F73297D1
S11311D004C07C916D9370836291AE17BF07C8F30E
S11311E008950F931F93CF93DF93FB01238121FD78
S11311F003C08FEF9FEF2CC022FF16C0468157819A
S1131200248135814217530744F4A081B1819D01A3
S11312102F5F3F4F318320838C93268137812F5F4B
S11312203F4F3783268314C08B01EC01FB010084FC
S1131230F185E02D0995892BE1F6D80116968D915B
S11312409C911797019617969C938E931697CE01AF
S1131250DF91CF911F910F910895FA01AA272830A9
S113126051F1203181F1E8946F936E7F6E5F7F4F6F
S11312708F4F9F4FAF4FB1E03ED0B4E03CD0670FEB
S1131280781F891F9A1FA11D680F791F8A1F911D3E
S1131290A11D6A0F711D811D911DA11D20D009F48E
S11312A068943F912AE0269F11243019305D3193D0
S11312B0DEF6CF010895462F4770405D4193B3E0B9
S11312C00FD0C9F7F6CF462F4F70405D4A3318F060
S11312D0495D31FD4052419302D0A9F7EACFB4E011
S11312E0A6959795879577956795BA95C9F70097C9
S11312F06105710508959B01AC010A2E069457956A
S1131300479537952795BA95C9F7620F731F841FC0
S1131310951FA01D08952F923F924F925F926F9256
S11313207F928F929F92AF92BF92CF92DF92EF9271
S1131330FF920F931F93CF93DF93CDB7DEB7CA1BF2
S1131340DB0B0FB6F894DEBF0FBECDBF09942A881D
S1131350398848885F846E847D848C849B84AA84C5
S1131360B984C884DF80EE80FD800C811B81AA8152
S1131370B981CE0FD11D0FB6F894DEBF0FBECDBF1D
S10B1380ED010895F894FFCF7C
S113138800003C0120000D01010101010154583AFB
S11313982054656D70657261747572652069732077
S11313A82575206465677265657320466168726E89
S10913B8686569740A0077
S9030000FC
